:020000040800F2
:100000003805002045010008D92500087D21000899
:10001000D5250008990100084127000800000000CC
:10002000000000000000000000000000E1250008C2
:100030009D01000800000000DD250008E5250008FE
:100040005F0100085F0100085F0100085F01000810
:100050005F0100085F0100085F0100085F01000800
:100060005F0100085F0100085F0100085F010008F0
:100070005F0100085F0100085F0100085F010008E0
:100080005F0100085F0100085F0100085F010008D0
:100090005F0100085F0100085F0100085F010008C0
:1000A000ED2500081126000805260008F92500089E
:1000B0005F0100081D2600085F0100085F010008BD
:1000C0005F0100085F0100085F0100085F01000890
:1000D0005F0100085F0100085F0100083527000884
:1000E0005F0100085F0100085F0100085F01000870
:1000F0005F0100085F0100085F0100085F01000860
:100100005F0100085F0100085F0100085F0100084F
:100110005F0100085F0100085F0100085F0100083F
:100120005F0100085F0100085F0100085F0100082F
:10013000DFF80CD000F018F800480047712D0008D7
:10014000380500200648804706480047FEE7FEE7DE
:10015000FEE7FEE7FEE7FEE7FEE7FEE7FEE7FEE777
:10016000E9250008310100081CB50948009009483C
:1001700001900546009C06E0E06840F0010394E829
:10018000070098471034AC42F6D3FFF7D5FF0000C4
:100190002C2F00084C2F0008FEE7000070470000DD
:1001A000EFF3108072B600BFFEE70000014690F842
:1001B0002100022816D10868D1E90FC3026822F095
:1001C0000E020260026822F001020260012000FAC1
:1001D00003F2CCF8042081F821000020002281F8ED
:1001E00020207047042088630120002281F820200D
:1001F0007047000090F82110022927D1026840F2D0
:10020000040C1368C4F2020C23F00E03136013688D
:100210000CF17C018A4223F0010111601AD940F2ED
:100220000841C4F202018A4250D040F21C41C4F29B
:1002300002018A4242D040F23041C4F202018A42B5
:1002400048D14FF48073CCF800345CE00421816322
:10025000012070474321C4F202018A420EDD6B2166
:10026000C4F202018A421BDC4421C4F202018A4228
:100270003ED05821C4F202018A4223E00821C4F290
:1002800002018A4232D01C21C4F202018A4237D0D4
:100290003021C4F202018A4214D14FF4807230E05E
:1002A0006C21C4F202018A4226D08021C4F20201EC
:1002B0008A4207D14FF0807223E000BF1023CCF8B0
:1002C000003420E04FF480321BE000BF0123CCF863
:1002D000003418E00CF588614FF480338A4208BF7F
:1002E0004FF48053CCF800340DE000BF012208E049
:1002F0004FF4805205E000BF4FF4801201E000BFD0
:100300001022CCF80020012180F82110416B00223E
:10031000002980F8202004BF0020704780B588475E
:10032000002080BDB0B5044600F00AF9054640F251
:100330000000C2F200000078611C18BF044400BF36
:1003400000F0FEF8401BA042FAD3B0BD2DE9F04FFB
:1003500082B00E68002E00F0E980A0F1804241F6E4
:10036000004540F20043A2F58432C4F201050624A0
:10037000C4F201034FEAB227A84208BF05244FF098
:10038000000E4FF001080F254FF0000A4FF0000B50
:10039000052F38BF4FEAB224009408E00E680AF136
:1003A000010A36FA0AF20EF1040E00F0BF8008FAD4
:1003B0000AFC16EA0C09F1D04E684FF6FF72C1F242
:1003C0001002964212DC122E56D8DFE806F0350BEA
:1003D0004D495555555555555555555555555545F1
:1003E000510000BFD1F80CB046E000BF4FF6FF72DD
:1003F000C1F2210296420FDC0022C1F211029642A4
:100400001AD00022C1F21202964215D00022C1F287
:100410002102964210D02FE00022C1F22202964221
:100420000AD00022C1F23102964205D00022C1F268
:100430003202964220D100BF8A684AB1012A14BF15
:10044000C0F814C0C0F810C04FF0080B14E000BF93
:100450004FF0040B10E000BFCA6802F1040B0BE080
:100460004FF0000B08E000BFCA6802F1080B03E080
:10047000CA6802F10C0B00BF02467446B9F5807FD2
:1004800024BF0432203C166805FA04F726EA070761
:100490000BFA04F637431760CA79D2067FF57EAFB0
:1004A00041F21807C4F202073A684FF6084542F0D5
:1004B00001023A603A68CFF6FF7502F0010201923C
:1004C000019A2AF003021A440F2457590EF00C0621
:1004D000B440A743009C04FA06F6374357514E68D0
:1004E00040F20C44F2029A6854BF22EA090242EA3E
:1004F0000902C4F201049A602268B70254BF22EADA
:10050000090242EA090222605A68B70354BF22EA8C
:10051000090242EA09025A600F251A68F70354BF1C
:1005200022EA090242EA09021A6037E702B0BDE88E
:10053000F08F0000002A08BF090401617047000025
:1005400040F23410C2F200000068704740F2000030
:1005500040F23411C2F20000C2F2000100780A68D1
:10056000104408607047000080B542F20000C4F2F9
:100570000200016841F010010160032000F08CF8D6
:100580000F2000F005F800F027F8002080BD0000E3
:1005900070B540F20006C2F2000640F2080132785F
:1005A000C2F200014FF47A730968B3FBF2F2044619
:1005B000B1FBF2F1084600F085FB0F2C4FF001056E
:1005C00008D838B94FF0FF3021460022002500F04E
:1005D00037F87460284670BD82B041F21800C4F24A
:1005E00002000168022241F001010160016801F08E
:1005F000010101910199416841F0805141604068D9
:1006000000F08050009000980420C4F201000168BE
:1006100062F31A61016002B070470000002848BF11
:10062000704700F01F01012202FA01F11C2202EAC8
:10063000D0004EF20012CEF200028150704700004E
:1006400010B54EF60C5CCEF2000CDCF80030C3F3B3
:10065000022E8EF00704042C28BF0424BEF10303ED
:100660004FF0FF3E0EFA04F438BF0023A143994037
:100670000EFA03F39A43114300F00F0200F16043B6
:100680000901043A03F564436244002848BF02F1BB
:100690000C03197010BD00004EF60C51CEF2000193
:1006A0000A684FF6FF031A4060F30A2242F08060A6
:1006B00040F0FD7008607047002804BF01207047BB
:1006C0002DE9F04381B042F20008C4F2020804466A
:1006D000D8F800000D4600F0070088420CD2D8F888
:1006E000000020F007002843C8F80000D8F80000F8
:1006F00000F00700A8426CD1206841F2040981078C
:10070000C4F2020917D5410705D5D9F8001041F404
:10071000E061C9F80010010705D5D9F8001041F4CF
:100720006051C9F80010D9F80010A26821F0F0015A
:100730001143C9F80010C00742D1D8F8000000F0FA
:100740000700A8420CD9D8F8000020F00700284381
:10075000C8F80000D8F8000000F00700A84238D11F
:100760002068410707D5D9F80010E26821F4E0615C
:100770001143C9F80010000708D5D9F80000216915
:1007800020F4605040EAC100C9F80000D9F8002008
:1007900002F00C00082841F20020C0F27A004DD18E
:1007A00042F61C73C2F38341C0F60003595CD203C6
:1007B00038D440F60010C0F23D0048433EE000BF90
:1007C000606859F8041C022808D0012826D1890342
:1007D00006D4012001B0BDE8F08300BF8901F8D53F
:1007E000D9F8001021F003010843C9F80000FFF711
:1007F000A7FE064641F28837D9F80000616800F08C
:100800000C00B0EB810F98D0FFF79AFE801BB84226
:10081000F2D9032001B0BDE8F08300BF8907D8D525
:10082000DEE700BFD9F8002042F61A73C2F3404257
:10083000C0F600039A5C4843B0FBF2F0D9F8001010
:1008400042F60272C1F30311C0F60002515C40F29D
:10085000080220FA01F140F20400C2F20000006830
:10086000C2F200021160FFF793FE002001B0BDE864
:10087000F083000040F2080041F20401C2F20000DF
:10088000C4F202010068096842F61272C1F3022143
:10089000C0F60002515CC8407047000040F20800FA
:1008A00041F20401C2F20000C4F2020100680968CA
:1008B00042F61272C1F3C221C0F60002515CC84078
:1008C00070470000002804BF012070472DE9F04167
:1008D00082B00446007841F20006C007C4F2020666
:1008E0000CD0706800F00C00042840F08180306863
:1008F000800303D56068002800F0468120788007D7
:100900001BD5706810F00C0F09D0706800F00C0057
:10091000082840F087807068C00300F18380306849
:10092000800703D52069012840F02E813068616975
:1009300020F0F80040EAC10030602078000713D4AE
:10094000207840072CD4E569002D00F018817068EC
:1009500000F00C00082840F0A780012D40F0048131
:10096000012002B0BDE8F081A069002800F0848079
:100970000020C4F242200121C0F88014FFF7E0FDFE
:10098000054600BF706A800700F1B280FFF7D8FD0E
:10099000401B0228F6D9032002B0BDE8F08100BF59
:1009A000F0695FEAC00808D4F06940F08050F06157
:1009B000F06900F080500090009847F20007C4F200
:1009C00000073868C00549D4386840F48070386042
:1009D000FFF7B6FD054600BF3868C0053ED4FFF7F7
:1009E000AFFD401B6428F7D9032002B0BDE8F081B9
:1009F000706800F00C00082803D17068C0033FF550
:100A000076AF61683068002900F00C81B1F5A02F45
:100A100000F00081B1F5803F40F01A8140F4803051
:100A20001CE100BF2069002840F20000C4F242200F
:100A300000F0888001210160FFF782FD054600BFBC
:100A4000306880073FF572AFFFF77AFD401B022840
:100A5000F6D9032002B0BDE8F08100BFE168306A3A
:100A6000002900F09D80052900F09280012940F0C6
:100A7000AF8040F00100B1E00020C4F2422000212C
:100A8000C0F88014FFF75CFD054600BF706A800760
:100A90007FF556AFFFF754FD401B0228F6D903201F
:100AA00002B0BDE8F08100BF0027C4F24227002059
:100AB0003866FFF745FD022D05460DD130688001EF
:100AC00040F1DE80FFF73CFD401B02284FF00300A1
:100AD000F4D902B0BDE8F081306880014FD5FFF74E
:100AE0002FFD401B02284FF00300F5D9F1E700BFAE
:100AF00040F20800C2F20000006844F6D351C1F28F
:100B00006201A0FB0101480A019000BF00BF0198EB
:100B1000411E002801913FF413AF00BF0198411E10
:100B2000002801913FF40CAF00BF0198411E00283E
:100B300001913FF405AF00BF0198411E00280191CB
:100B4000E4D1FDE600210160FFF7FAFC054600BF95
:100B5000306880077FF5F1AEFFF7F2FC401B0228FA
:100B60004FF00300F4D9B4E77068216A00F48032D2
:100B70008A4209D1616A00F47010884204D10020D1
:100B800002B0BDE8F08100BF012002B0BDE8F081F5
:100B900040F004003062306A40F001001EE000BF07
:100BA00020F001003062306A20F004003062FFF76C
:100BB000C7FC054641F28837306A800720D5FFF729
:100BC000BFFC401BB8424FF00300F5D981E700BFDE
:100BD00020F001003062306A20F004003062FFF73C
:100BE000AFFC054641F28837306A800708D4FFF72A
:100BF000A7FC401BB842F7D9032002B0BDE8F08142
:100C0000B8F1000F3FF59FAEF06920F08050F06121
:100C100099E600BF40F480203060306840F48030B6
:100C20001CE000BF20F480303060306820F4802069
:100C30003060FFF785FC0546306880037FF55EAEC7
:100C4000FFF77EFC401B64284FF00300F4D940E717
:100C500020F480303060306820F480203060FFF76E
:100C60006FFC0546306880033FF548AEFFF768FC2F
:100C7000401B6428F6D9032002B0BDE8F08100BF14
:100C8000206AB0F5803F05D17168A26821F4003177
:100C9000114371607168626A21F474111143084351
:100CA000706001203866FFF74BFC04463068800115
:100CB0003FF565AFFFF744FC001B02284FF003002F
:100CC000F4D906E7411E0020B0EB116F1CBF0120D4
:100CD00070474EF21002CEF2000251604EF62351E0
:100CE000CEF20001F0230B70072190601160704775
:100CF000704700007047000090F83C20012A04BFB4
:100D000002207047B0B501F108053CCDD1E900CE15
:100D100023F47C5322F470521A432EF4F0431A4306
:100D20002CF4E0431A4324F4C0431A432A43C9690C
:100D300022F48042036811435964002180F83C107A
:100D40000020B0BD90F83C20012A4FF0020242D0B2
:100D500010B580F83D200268D2F804E0D2F808C04F
:100D60000C682EF07003234340F6FF34C4F20004F5
:100D7000A242536010DCB2F1804F1FD040F200431A
:100D8000C4F200039A4219D040F60003C4F20003F3
:100D90009A4213D017E000BF40F60043C4F20003AC
:100DA0009A420BD043F20043C4F201039A4205D0A9
:100DB00042F60043C4F201039A4204D149682CF080
:100DC0008003194391600121002280F83D1080F8D2
:100DD0003C20BDE81040104670470000002804BFCA
:100DE0000120704710B590F83D1031B9002180F80E
:100DF0003C10044600F082F82046022180F83D10A5
:100E0000016840F6FF320B68C4F2000240F6004E63
:100E100043F2004C9142C4F2000EC4F2010C21DCFA
:100E2000B1F1804F28D040F20044C4F20004A14246
:100E300022D040F60004C4F20004A1421CD091422A
:100E400020DCB1F1804F27D040F20042C4F2000212
:100E5000914221D040F60002C4F2000291421BD020
:100E60001EE000BF714507D0614505D042F6004441
:100E7000C4F20104A142E2D1846823F07003234349
:100E80009142DEDD714507D0614505D042F6004252
:100E9000C4F20102914203D1026923F44073134367
:100EA000846923F08002D0F804E0C36822436145DE
:100EB0000A60CB62C1F828E005D042F60042C4F2D5
:100EC0000102914201D142690A6301224A6180F81C
:100ED000462080F83E2080F83F2080F8402080F8AF
:100EE000412080F8422080F8432080F8442080F898
:100EF000452080F83D20002010BD000080B582B064
:100F00000068B0F1804F35D042F60041C4F20101D3
:100F100088423CD141F21800C4F20200016800226C
:100F200041F4006101600068002100F4006001905C
:100F300001981820FFF784FB1820FFF76FFB19209A
:100F400000210022FFF77CFB1920FFF767FB1A2026
:100F500000210022FFF774FB1A20FFF75FFB1B2024
:100F600000210022FFF76CFB1B2002B0BDE880408F
:100F7000FFF754BB41F21800C4F20200416841F08F
:100F800001014160406800F001000090009802B04B
:100F900080BD000090F83C20012A4FF002026CD086
:100FA00080B580F83D20D0F800C04FF67772DCF8AD
:100FB000083023EA0202CCF808200B684F2B29DC0A
:100FC0001F2B45DD202B46D0302B44D0402B40F04A
:100FD000AF80D1F804E0C968DCF82030DCF82020CC
:100FE00022F00102CCF82020DCF8182022F0F002D8
:100FF00042EA011123F00A0242EA0E02CCF818106C
:10100000CCF82020DCF8081041F0470121F0300135
:1010100028E000BF6F2B33DDB3F5005F74D0B3F56C
:10102000805F21D0702B40F08380D1E901E3C96853
:10103000DCF8082043EA0E0322F47F4243EA012150
:101040001143CCF80810DCF8081041F0770109E0F2
:101050000BB1102B6CD1DCF8081021F07001194392
:1010600041F00701CCF808100022012180F83D1062
:10107000002180F83C10BDE880401046704700BF5A
:10108000502B21D0602B53D1D1F804E0C968DCF893
:101090002030DCF8202022F01002CCF82020DCF8F0
:1010A000182022F4704242EA013123F0A00242EA01
:1010B0000E12CCF81810CCF82020DCF8081041F003
:1010C000670121F01001CDE7D1F804E0C968DCF830
:1010D0002030DCF8202022F00102CCF82020DCF8BF
:1010E000182022F0F00242EA011123F00A0242EA3B
:1010F0000E02CCF81810CCF82020DCF8081041F0D3
:10110000570121F02001ADE7D1E901E3C968DCF81E
:10111000082043EA0E0322F47F4243EA01211143EF
:10112000CCF80810DCF8081041F480419AE700BFC1
:1011300001229AE77047000010B50168044608696B
:10114000800744BFC8685FEA807039D408694007E7
:1011500044BFC8685FEA40703ED40869000744BFD6
:10116000C8685FEA007045D40869C00644BFC86813
:101170005FEAC0604AD40869C0071CBFC8685FEA5C
:10118000C07051D10869000644BFC8685FEA0060BA
:1011900052D40869400644BFC8685FEA406053D42F
:1011A0000869800646BFC8685FEA806010BD6FF0BE
:1011B000200220460A61BDE81040FFF79BBD00BF3A
:1011C0006FF002000861012020778869800743D012
:1011D0002046FFF7AFFF45E06FF0040008610220F2
:1011E0002077886910F4407F40D02046FFF7A2FFA7
:1011F00042E000BF6FF00800086104202077C86952
:1012000080073DD02046FFF795FF3FE06FF01000CC
:10121000086108202077C86910F4407F3AD0204642
:10122000FFF788FF3CE000BF6FF001000861204637
:1012300000F0F8FA2168A5E76FF080000861204609
:10124000FFF756FD2168A4E76FF0400008612046D3
:1012500000F0EAFA2168A3E7204600F08FF8204664
:1012600000F06EFA2168002020776FE7204600F03A
:1012700085F8204600F064FA2168002020776CE7AA
:10128000204600F07BF8204600F05AFA2168002042
:10129000207769E7204600F071F8204600F050FA08
:1012A00021680020207766E780B586B000680021BD
:1012B000B0F1804FCDE904110391029142D040F288
:1012C0000041C4F2000188422CD042F60041C4F231
:1012D000010188424FD141F21800C4F202000168B6
:1012E00041F040010160006802A900F04000019057
:1012F00001984FF4D440029002200390059040F6EC
:101300000000C4F2010000F58050FFF71FF8042030
:10131000C4F20100016841F0E06141F0C0010160E8
:1013200006B080BD41F21800C4F20200016841F02D
:1013300004010160006800F0040001900198402061
:101340000EE000BF41F21800C4F20200016841F053
:1013500004010160006800F004000190019807207A
:10136000029002200390059040F60000C4F20100B4
:1013700002A9FEF7EBFF06B080BD00007047000039
:1013800090F83C30012B04BF022070474FEAB202B4
:10139000032A00F21D812DE9F041DFE802F003C7C6
:1013A000479100BF036843F200461D6A1A6A25F0A0
:1013B000020522F001021A621A465C6852F818CF40
:1013C0008F68D1F800E0C4F20106B34245EA070590
:1013D00005D042F60047C4F20107BB4205D1CF68F1
:1013E00025F00C0527F004073D43B34205D042F633
:1013F0000046C4F20106B34205D1D1E9056724F4E1
:10140000407434433C432CF0730747EA0E075C609A
:101410009F614F6809695F631D629F6947F0080714
:101420009F619F6927F004079F61C6E0036843F24C
:1014300000461D6A1A6A25F4007522F480721A6249
:101440001A46D3F804C052F81CEF8F68D1F8008018
:10145000C4F20106B34245EA072505D042F600472B
:10146000C4F20107BB4208D1CF6840F2FF443F02FB
:1014700025F4406527EA04042543B34205D042F62B
:101480000044C4F20104A34206D1D1E905462CF47C
:101490004057264347EA061C2EF0730747EA080721
:1014A000C3F804C0DF614F680969DF631D62DF694B
:1014B00047F00807DF61DF6927F00407DF617CE0A0
:1014C000036843F20047D3F820C01A6AC4F2010748
:1014D00022F480521A621A465C6852F81C5FD1F8F6
:1014E00000E08E68BB4205D042F60047C4F2010717
:1014F000BB4204D14F6924F4804444EA87142CF49D
:10150000005747EA063725F4E64646EA0E265C60B1
:10151000DE614E6809691E641F62DF6947F4006777
:10152000DF61DF6927F48067DF6145E0036843F22C
:1015300000481D6A1A6A25F0200522F010021A627E
:101540001A465C6852F818CF8F68D1F800E0C4F2F0
:101550000108434545EA071505D042F60047C4F2A5
:101560000107BB4207D1CF686FF0400625F0C005E8
:1015700006EA07163543434505D042F60046C4F255
:101580000106B34206D1D1E9056724F440643E4325
:1015900044EA86042CF4E64747EA0E275C609F6124
:1015A0004F6809699F631D629F6947F400679F61E7
:1015B0009F6927F480679F610902136819431160CE
:1015C0000021BDE8F041002280F83C200846704729
:1015D0000121002280F83C2008467047002804BF03
:1015E0000120704710B590F83D1031B9002180F806
:1015F0003C10044600F082F82046022180F83D109D
:10160000016840F6FF320B68C4F2000240F6004E5B
:1016100043F2004C9142C4F2000EC4F2010C21DCF2
:10162000B1F1804F28D040F20044C4F20004A1423E
:1016300022D040F60004C4F20004A1421CD0914222
:1016400020DCB1F1804F27D040F20042C4F200020A
:10165000914221D040F60002C4F2000291421BD018
:101660001EE000BF714507D0614505D042F6004439
:10167000C4F20104A142E2D1846823F07003234341
:101680009142DEDD714507D0614505D042F600424A
:10169000C4F20102914203D1026923F4407313435F
:1016A000846923F08002D0F804E0C36822436145D6
:1016B0000A60CB62C1F828E005D042F60042C4F2CD
:1016C0000102914201D142690A6301224A6180F814
:1016D000462080F83E2080F83F2080F8402080F8A7
:1016E000412080F8422080F8432080F8442080F890
:1016F000452080F83D20002010BD0000006840F229
:101700000041C4F20001884218BF704780B582B022
:1017100041F21C00C4F202000168002241F0020103
:1017200001600068002100F00200019001981D2076
:10173000FEF786FF1D2002B0BDE88040FEF76EBFB9
:1017400070470000C1B1042908D0082914BF412204
:101750004022825C012A05D016E000BF3F22825C55
:10176000012A11D10222082910D0042914BF80F8BF
:10177000412080F83F200BE090F83E20012A03D161
:10178000022280F83E2003E00120704780F84020CC
:10179000006801F01F010122036A02FA01F123EA45
:1017A00001020262026A114340F6FF32C4F20002F3
:1017B000904201620EDCB0F1804F25D040F2004132
:1017C000C4F2000188421FD040F60001C4F20001BB
:1017D00018E000BF40F60041C4F20001884213D077
:1017E00043F20042C4F2010242F600419042C4F2C8
:1017F000010101D088420ED1436C904243F4004372
:10180000436401D0884206D1816801F007010629AE
:1018100004BF00207047016841F001010160002011
:1018200070470000704700007047000070470000DC
:1018300070470000B0B582B001680A68CC684B6997
:1018400002F02F05202D04F0200505D125B102B0AE
:10185000BDE8B04000F0EEBE5FEA027C1EBF03F0C0
:10186000010E04F4907313EB0E0341D1036BD50604
:1018700018D5012B16D114F0100313D000220192B9
:101880000A6801924A680192019A496949064BD453
:10189000818DC28DC38D002B18BF914240F0F48121
:1018A00002B0B0BD13062DD514F080032AD090F8F5
:1018B0004120212AF4D18268B2F5805F03D1026908
:1018C000002A00F06782026A531C036212784A60A1
:1018D000C28C013A1304C284E2D1C86820F08000AF
:1018E000C860C86840F04000C86002B0B0BD00BF2A
:1018F000D30718BF14F4807340F0D080530700F171
:10190000D380D8E05206CBD514F04002C8D0CA68C4
:1019100022F04002CA60202180F8411002B0BDE8E8
:10192000B04000F029BC00BFC16B0A68526893B296
:10193000002BB5D0858DAB42B2D2C28589692029F2
:1019400000F0A180016851E8031F026821F4807152
:1019500042E80313DBB1016851E8031F026821F478
:10196000807142E8031393B1016851E8031F0268D4
:1019700021F4807142E803134BB1016851E8031F61
:10198000026821F4807142E80313002BDAD1016868
:1019900051E8051F026821F0010142E80513C3B3B5
:1019A000016851E8051F026821F0010142E80513B2
:1019B0007BB3016851E8051F026821F0010142E88C
:1019C000051333B3016851E8051F026821F00101D6
:1019D00042E80513002BDAD11BE000BF016851E893
:1019E000051F026821F0400142E80513DBB10168E0
:1019F00051E8051F026821F0400142E8051393B148
:101A0000016851E8051F026821F0400142E8051312
:101A10004BB1016851E8051F026821F0400142E81E
:101A20000513002BDAD1202180F842100021016338
:101A3000016851E8031F026821F0100142E8031316
:101A4000DBB1016851E8031F026821F0100142E890
:101A5000031393B1016851E8031F026821F01001DC
:101A600042E803134BB1016851E8031F026821F0FB
:101A7000100142E80313002BDAD1C16B044608467B
:101A8000FEF794FB204602214163818DC28D891AA5
:101A900089B202B0BDE8B040FFF7C8BE436C43F066
:101AA00001034364530706D5BEF1000F03D0436C16
:101AB00043F002034364930706D5BEF1000F03D041
:101AC000436C43F004034364BCF1000F06D55EEAA7
:101AD000050303D0436C43F008034364436C002BBD
:101AE0003FF4DEAE920605D525B1044600F0A2FD16
:101AF000216820464969426C01F0400102F0080269
:101B0000891800F0B98000BF016851E8031F02681E
:101B100021F4907142E80313BBB3016851E8031F3D
:101B2000026821F4907142E8031373B3016851E82D
:101B3000031F026821F4907142E803132BB301687C
:101B400051E8031F026821F4907142E80313002B4F
:101B5000DAD11AE0016851E8051F026821F001019D
:101B600042E80513DBB1016851E8051F026821F066
:101B7000010142E8051393B1016851E8051F0268AD
:101B800021F0010142E805134BB1016851E8051F3E
:101B9000026821F0010142E80513002BDAD1016B44
:101BA000012924D1016851E8031F026821F01001C6
:101BB00042E80313DBB1016851E8031F026821F01A
:101BC000100142E8031393B1016851E8031F026852
:101BD00021F0100142E803134BB1016851E8031FE3
:101BE000026821F0100142E80313002BDAD1202112
:101BF00080F842100021016301684969490640F1FB
:101C0000C380016851E8051F026821F0400142E8E5
:101C10000513DBB1016851E8051F026821F040019E
:101C200042E8051393B1016851E8051F026821F0ED
:101C3000400142E805134BB1016851E8051F0268F5
:101C400021F0400142E80513002BDAD1C16B0029D5
:101C500000F09A8042F22962C0F60002044608466B
:101C60004A63FEF7C7FA00283FF41AAEE06B416BF7
:101C700002B0BDE8B04008470446FFF7D9FD002098
:101C8000606402B0B0BD00BF891A00BF026852E8AC
:101C9000032F036822F4907243E80325BDB3026862
:101CA00052E8032F036822F4907243E8032575B3CA
:101CB000026852E8032F036822F4907243E8032578
:101CC0002DB3026852E8032F036822F4907243E8B0
:101CD0000325002DDAD11AE0026852E8052F0368C7
:101CE00022F0010243E80525DDB1026852E8052F24
:101CF000036822F0010243E8052595B1026852E825
:101D0000052F036822F0010243E805254DB1026862
:101D100052E8052F036822F0010243E80525002D53
:101D2000DAD1202280F8422000220263026852E8C1
:101D3000032F036822F0100243E80325DDB1026897
:101D400052E8032F036822F0100243E8032595B1FF
:101D5000026852E8032F036822F0100243E80325CB
:101D60004DB1026852E8032F036822F0100243E8E5
:101D70000325002DDAD1022289B2426302B0BDE808
:101D8000B040FFF753BD00BF02B0BDE8B040FFF761
:101D90004FBD00BF026A32F8023B6FF35F234B6016
:101DA000026295E5002804BF0120704710B5044683
:101DB00090F8410028B9002084F84000204600F047
:101DC00063F8242084F841002068D4E90212C36833
:101DD00023F40053C360036923F440531A430261A0
:101DE000D4E904231143C268194341F20C639A43B6
:101DF0001143C1604169A26921F44071114343F666
:101E00000002C4F201029042416103D0FEF732FDAC
:101E100002E000BFFEF742FDD4E900231921484348
:101E20009900B0FBF1F048F21F5CC5F2EB1CA0FB7F
:101E30000C314FF69C734909C0F6FF7301FB030098
:101E4000322303EB0010A0FB0C03F02000EA531038
:101E500000EB0110C3F34311084490601069202186
:101E600020F490401061506920F02A005061D06841
:101E700040F40050D0600020606484F8411084F881
:101E80004210606310BD000070B586B040F600449B
:101E9000C4F201040068A4F5444100268842059676
:101EA000CDE90366029601D006B070BD41F218007C
:101EB000C4F20200416802AD41F4802141604168F2
:101EC00001F4802101910199016841F0080101604C
:101ED0000068294600F00800019001984FF48060E6
:101EE000029002200390032005902046FEF72EFA70
:101EF0004FF40060CDE90206204629460496FEF71D
:101F000025FA272000210022FEF79AFB2720FEF762
:101F100085FB06B070BD000090F84230202B07D141
:101F200000294FF0010318BF002A05D11846704759
:101F300002231846704700BF0023036381622221F9
:101F40008285C285436480F842100169006819B136
:101F5000C16841F48071C160416941F00101416192
:101F6000C16841F02001C1601846704770B540F269
:101F7000301640F2E800C2F20006C2F2000031461C
:101F8000012200F0D9F8307867281FD06C2822D0C1
:101F9000302825D0312828D072282BD062282ED086
:101FA000732831D0392834D0612802D100F05EFC8A
:101FB0003078642844D0662847D06A284AD06828F8
:101FC0004DD0A0F13304242C50D988E000F004FC5B
:101FD00030786C28DCD100F01FFD30783028D9D162
:101FE00000F0AAFD30783128D6D100F089FC307895
:101FF0007228D3D100F02CFE30786228D0D100F0C6
:10200000A1FB30787328CDD100F028FF3078392833
:10201000CAD140F258034FF4E1613C22C2F20003FE
:1020200040E000BF40F2E80040F23011C2F2000090
:10203000C2F200010122BDE87040FFF76DBF00BF92
:1020400000F032FD30786628B7D100F0BBFD307863
:102050006A28B4D100F09AFC30786828B1D100F039
:102060003FFE3078A0F13304242C38D840F25803D6
:102070004FF4C8713C22C2F20003DFE804F01317EA
:1020800051555930303030303030303030303030E1
:102090003030303030303030303030301B30303055
:1020A0001F304D0018688150BCE700BF40F2DC5182
:1020B0003822F7E74FF44871F4E700BF40F600001C
:1020C000C4F2010080210122FEF734FA40F2A000A0
:1020D000C2F2000000684FF4FA714163307844287E
:1020E00010D140F60000C4F2010080210022FEF76A
:1020F00021FA40F2A000C2F2000000684FF4FA7129
:10210000416330784E287FF48DAF40F2A003002168
:102110003422C2F20003C5E74FF4AF61C2E700BF4B
:102120004FF4FA713822BDE740F246513422B9E744
:102130004FF42F713422B5E790F84130202B07D1AE
:1021400000294FF0010318BF002A05D11846704737
:1021500002231846704700BF0162002321218284B8
:10216000C284436480F841100068C16841F0800176
:10217000C16018467047000070470000FEE700008D
:102180002DE9F04F85B04FF0000941F21800CDE97C
:102190000399CDE90199C4F20200016840F60008F4
:1021A00041F0100101600168C4F2010801F0100162
:1021B00000910099016808F5A05641F08001016086
:1021C0000168002201F080010091009901684FF43C
:1021D000F06441F004010160016801F00401009124
:1021E0000099016841F040010160016801F040017F
:1021F00000910099016841F008010160016801F057
:10220000080100910099016841F480710160006843
:102210004FF4F06100F48070009000983046FEF7B3
:1022200089F908F50067384603210022FEF782F994
:102230004046B0210022FEF77DF908F5C05528463A
:1022400050210022FEF776F9019401AC4FF0010B0A
:102250004FF0020A30462146CDE902B9CDF810A070
:10226000FEF774F80320CDE9010B38462146CDE98D
:10227000039AFEF76BF8B020CDE9010B40462146EA
:10228000CDE9039AFEF762F85020CDE9010B28460C
:102290002146CDE9039AFEF759F84FF48060CDE965
:1022A000010940462146CDF80C90FEF74FF805B0E5
:1022B000BDE8F08F10B596B040F2100042F6004233
:1022C0000021C2F20000C4F20102472342F20F745F
:1022D0004FF0800C1591CDE913111191CDE90F113B
:1022E000CDE90D11CDE90B11CDE90911CDE90711AA
:1022F000CDE90511CDE90311CDE90111C0E90023B4
:10230000C0E90214C0E90411C0F818C0FEF766FD68
:10231000002818BFFDF744FF4FF48050129040F2A0
:102320001000C2F2000012A9FEF734FE002818BF08
:10233000FDF736FF40F21000C2F20000FFF74EF941
:10234000002818BFFDF72CFF40F210000024C2F255
:10235000000010A9CDE91044FEF7F4FC002818BFD6
:10236000FDF71EFF6020CDE9090440F21000C2F223
:10237000000009A90022CDE90B44CDE90D440F94DA
:10238000FEF7FEFF002818BFFDF70AFF40F210001D
:10239000C2F2000009A90422FEF7F2FF002818BFCC
:1023A000FDF7FEFE40F21000C2F2000009A908226B
:1023B000FEF7E6FF002818BFFDF7F2FE40F210001E
:1023C000C2F2000009A90C22FEF7DAFF002818BFAC
:1023D000FDF7E6FE00200590CDE90300CDE9010000
:1023E0004FF40051089040F210000691C2F2000034
:1023F00001A9FEF781FC002818BFFDF7D1FE40F2CD
:102400001000C2F20000FEF74FFF16B010BD000032
:1024100010B58EB040F258000021C2F200004FF01B
:102420008042472340F2CF740D91CDE90B11099101
:10243000CDE90711CDE90511CDE90311CDE9011170
:10244000C0E90023C0E9021401618161FEF7C6FC06
:10245000002818BFFDF7A4FE4FF480500A9040F208
:102460005800C2F200000AA9FEF794FD002818BF28
:10247000FDF796FE40F25800C2F20000FFF7AEF8FA
:10248000002818BFFDF78CFE40F258000024C2F26D
:10249000000008A9CDE90844FEF754FC002818BF45
:1024A000FDF77EFE6020CDE9010440F25800C2F243
:1024B000000001A9002203940594FEF761FF0028A3
:1024C00018BFFDF76DFE40F25800C2F2000001A9EE
:1024D0000422FEF755FF002818BFFDF761FE40F209
:1024E0005800C2F2000001A90822FEF749FF0028A7
:1024F00018BFFDF755FE40F25800C2F20000FEF78B
:10250000D3FE0EB010BD000080B58AB040F2A0002E
:1025100040F200420021C2F20000C4F20002472350
:1025200040F2CF7CCDE90811CDE90611CDE90411C7
:10253000C0E90023C0E9021C01618161FFF74EF888
:10254000002818BFFDF72CFE40F2A000C2F20000E8
:1025500008A9FEF7F7FB002818BFFDF721FE602051
:10256000019040F2F310029000200390059040F299
:10257000A000C2F2000001A90022FEF701FF00281E
:1025800018BFFDF70DFE40F2A000C2F20000FEF7FA
:102590008BFE0AB080BD000080B540F2E80044F632
:1025A0000001C2F20000C4F2000100234FF00C0C45
:1025B0004FF4E13280E80E00C0E90333C0E905C3FF
:1025C000C361FFF7EFFB002808BF80BDBDE8804076
:1025D000FDF7E6BDFEE70000FEE7000070470000E3
:1025E00070470000FDF7B2BF7047000040F21000D6
:1025F000C2F20000FEF7A0BD40F21000C2F20000DF
:10260000FEF79ABD40F21000C2F20000FEF794BD42
:1026100040F21000C2F20000FEF78EBD40F2A000B2
:10262000C2F20000FEF788BD406A0021C185C18466
:10263000FFF7FEB881B090F84210222921D18368BB
:102640000246B3F5805F09D152F8281F52F8183CB2
:10265000002B63D003685B680AE000BF52F8281FB4
:1026600013B90369002BF5D003685B6803F07F039F
:102670000B70116801311160C18D01390A04C185E7
:1026800002D001B0704700BF0168CA6822F0200282
:10269000CA60CA6822F48072CA604A6922F00102E4
:1026A0004A61202180F8421000214163026B012A17
:1026B0003CD10163016851E8031F026821F0100159
:1026C00042E80313DBB1016851E8031F026821F0FF
:1026D000100142E8031393B1016851E8031F026837
:1026E00021F0100142E803134BB1016851E8031FC8
:1026F000026821F0100142E80313002BDAD10168CF
:102700000A68D20606D5002200920A68009249683B
:1027100000910099818D01B0FFF788B80268526876
:102720006FF35F2221F8022B8162A5E701B0FFF76A
:102730001DBC000040F2E800C2F20000FFF77AB8CA
:10274000FEE7000070B541F60044C4F20104A4F5B0
:10275000A055284610210122FDF7ECFE2846202135
:102760000022FDF7E7FE40F21006C2F200063068D4
:1027700041F28831A4F540654163284602210022D8
:10278000FDF7D8FE284601210122FDF7D3FE30686F
:102790004FF4FA51816320464FF480710122FDF716
:1027A000C9FE204680210022FDF7C4FE306841F2B8
:1027B0007071C16320464FF480610122FDF7BAFEBB
:1027C00020464FF400710022FDF7B4FE306842F25B
:1027D0002831016470BD0000F0B581B041F60044BD
:1027E000C4F20104A4F5A055284610210022FDF7EB
:1027F000A1FE284620210122FDF79CFE40F2100692
:10280000C2F20006306841F28837A4F5406547639C
:10281000284601210022FDF78DFE284602210122D3
:10282000FDF788FE306842F21C51816320464FF468
:1028300080710022FDF77EFE204680210122FDF7F7
:1028400079FE30684FF48061C76320460022FDF7AF
:1028500071FE20464FF400710122FDF76BFE3068D7
:1028600042F22831016401B0F0BD0000F0B581B042
:1028700041F60044C4F20104A4F5A05528461021F5
:102880000022FDF757FE284620210122FDF752FEC7
:1028900040F21006C2F20006306840F6C417A4F5F4
:1028A00040654763284601210022FDF743FE284684
:1028B00002210122FDF73EFE306841F28E21816344
:1028C00020464FF480710022FDF734FE204680211F
:1028D0000122FDF72FFE30684FF48061C763204668
:1028E0000022FDF727FE20464FF400710122FDF77C
:1028F00021FE306841F29411016401B0F0BD000086
:10290000F0B581B041F60044C4F20104A4F5A0552D
:10291000284610210122FDF70DFE28462021002225
:10292000FDF708FE40F21006C2F2000630684FF4D0
:10293000FA57A4F540654763284601210022FDF7B8
:10294000F9FD284602210122FDF7F4FD30684FF41D
:102950008071876320460122FDF7ECFD204680212F
:102960000022FDF7E7FD30684FF48061C763204621
:102970000022FDF7DFFD20464FF400710122FDF734
:10298000D9FD3068076401B0F0BD0000F0B581B03A
:1029900041F60044C4F20104A4F5A05528461021D4
:1029A0000122FDF7C7FD284620210022FDF7C2FDC8
:1029B00040F21006C2F20006306842F21C57A4F53D
:1029C00040654763284601210022FDF7B3FD2846F4
:1029D00002210122FDF7AEFD30684FF4807187635C
:1029E00020460122FDF7A6FD204680210022FDF7AA
:1029F000A1FD30684FF48061C76320460022FDF7D7
:102A000099FD20464FF400710122FDF793FD3068D7
:102A1000076401B0F0BD0000F0B581B041F600449C
:102A2000C4F20104A4F5A055284610210022FDF7A8
:102A300081FD284620210122FDF77CFD40F2100691
:102A4000C2F20006306841F65837A4F54065476386
:102A5000284602210022FDF76DFD284601210122B2
:102A6000FDF768FD30684FF4FA55856320464FF452
:102A700080710122FDF75EFD204680210022FDF7D6
:102A800059FD30684FF48061C56320460022FDF790
:102A900051FD20464FF400710122FDF74BFD3068D7
:102AA000076401B0F0BD0000F0B581B041F600440C
:102AB000C4F20104A4F5A055284610210022FDF718
:102AC00039FD284620210122FDF734FD40F2100691
:102AD000C2F20006306840F6B837A4F54065476397
:102AE000284602210022FDF725FD2846012101226A
:102AF000FDF720FD306840F6AC55856320464FF465
:102B000080710122FDF716FD204680210022FDF78D
:102B100011FD30684FF48061C56320460022FDF747
:102B200009FD20464FF400710122FDF703FD3068D6
:102B3000076401B0F0BD0000F0B581B041F600447B
:102B4000C4F20104A4F5A055284610210022FDF787
:102B5000F1FC284620210122FDF7ECFC40F2100692
:102B6000C2F2000630684FF4FA57A4F54065476397
:102B7000284602210022FDF7DDFC28460121012222
:102B8000FDF7D8FC30684FF480718763204600223F
:102B9000FDF7D0FC204680210122FDF7CBFC3068F8
:102BA0004FF48061C76320460122FDF7C3FC204635
:102BB0004FF400710022FDF7BDFC3068076401B0DE
:102BC000F0BD0000F0B581B041F60044C4F201044C
:102BD000A4F5A055284610210022FDF7ABFC28469D
:102BE00020210122FDF7A6FC40F21006C2F20006E9
:102BF000306842F21C57A4F540654763284602211D
:102C00000022FDF797FC284601210122FDF792FCE6
:102C100030684FF48071876320460022FDF78AFCFC
:102C2000204680210122FDF785FC30684FF4806149
:102C3000C76320460122FDF77DFC20464FF400715A
:102C40000022FDF777FC3068076401B0F0BD00009A
:102C5000F0B581B041F60044C4F20104A4F5A055DA
:102C6000284610210122FDF765FC2846202100227C
:102C7000FDF760FC40F21006C2F20006306841F633
:102C80005837A4F540654763284601210022FDF727
:102C900051FC284602210122FDF74CFC30684FF41C
:102CA000FA55856320464FF480710022FDF742FCFF
:102CB000204680210122FDF73DFC30684FF4806101
:102CC000C56320460122FDF735FC20464FF4007114
:102CD0000022FDF72FFC3068076401B0F0BD000052
:102CE000F0B581B041F60044C4F20104A4F5A0554A
:102CF000284610210122FDF71DFC28462021002234
:102D0000FDF718FC40F21006C2F20006306840F6EB
:102D1000B837A4F540654763284601210022FDF736
:102D200009FC284602210122FDF704FC306840F628
:102D3000AC55856320464FF480710022FDF7FAFB05
:102D4000204680210122FDF7F5FB30684FF48061B9
:102D5000C56320460122FDF7EDFB20464FF40071CC
:102D60000022FDF7E7FB3068076401B0F0BD00000A
:102D700090B0FDF7F9FB00240120CDE90B44CDE92B
:102D8000094406900A904FF4E0104FF48031022578
:102D90000F9006A8CDE90714CDE90D51FDF792FD7E
:102DA00020B1EFF3108072B6FEE700BF0F20CDE92F
:102DB00001054FF48060CDE9040401A802210394C9
:102DC000FDF77AFC20B1EFF3108072B6FEE700BF8A
:102DD000FFF7D6F9FFF76EFAFFF7DEFBFFF718FBF8
:102DE000FFF792FB40F21004C2F2000420460021DB
:102DF000FEF7A8FC20460421FEF7A4FC204608218B
:102E0000FEF7A0FC20460C21FEF79CFC40F2580483
:102E1000C2F2000420460021FEF794FC2046042163
:102E2000FEF790FC20460821FEF78CFC40F2A00043
:102E3000C2F200000021FEF785FC0A20FDF772FABD
:102E400040F2E80040F23011C2F20000C2F200018C
:102E50000122FFF761F800BFFEE70000F0B581B086
:102E600041F60044C4F20104A4F5A05528461021FF
:102E700000220026FDF75EFB284620210122FDF7F7
:102E800059FB40F21007C2F200073868A4F540650C
:102E90004663284602210022FDF74CFB284601210B
:102EA0000122FDF747FB38684FF4807186632046A6
:102EB0000122FDF73FFB204680210022FDF73AFB6F
:102EC00038684FF48061C66320460122FDF732FB6B
:102ED00020464FF400710022FDF72CFB3868066491
:102EE00001B0F0BD02E008C8121F08C1002AFAD1E3
:102EF00070477047002001E001C1121F002AFBD17A
:102F000070470000000000000000010203040607F3
:102F10000809000000000102030401020203040585
:102F2000060708090A0B0C0D0E0F1010502F000891
:102F30000000002010000000E42E0008602F0008B0
:102F40001000002028050000F42E000800000000FA
:102F500001000000100000000024F4000000000048
:0400000508000131BD
:00000001FF
